:060000000A128A11FC2F18
:100ED8008B137008831203178D0072088C00831619
:100EE80003178C130C158B1355308D00AA308D0009
:100EF8008C148C18802F812F7D2F0C118B170800D4
:100F0800013083120313A0000030A1000030F0006C
:100F1800F1002108F3002008F2000A128A116C2758
:100F28000A128A11013083120313A2000030A300B1
:100F38000130F0000030F1002308F3002208F2002D
:100F48000A128A116C270A128A11023083120313BB
:100F5800B4003408F4007407FC3E203E8400831378
:100F68000008F500840A0008F6003408F70077073F
:100F7800FE3E203E84000008F800840A0008F900BC
:100F880075087807FA0076080318760A7907FB00CF
:100F98003408FC007C07203E84007A088000840A1C
:100FA8007B0880003408F400F5017408F000750827
:100FB800F1003408F6007607203E84000008F200AD
:100FC800840A0008F3000A128A116C270A128A118F
:100FD8000130FF007F0883120313B4070A3034027C
:100FE800031CF72FF82FAD2FF82F0A128A110028AB
:080FF80083010A128A11842F03
:02400E00F73F7A
:00000001FF
