:060000000A128A11FC2F18
:100F7C00F001F101831603138501013088008312FF
:100F8C000313051408108316031381128111F83012
:100F9C008105CE30831203138100081CD62FD72F66
:100FAC00D32F0B1DDA2FDB2FD72F0B11CE30831243
:100FBC00031381000130F0070318F10A0030F10728
:100FCC00033070067104031DEC2FED2FEE2F05106E
:100FDC000A3070067104031DF42FF52FD72F05145A
:100FEC00F001F101D72F0A128A11002883010A128D
:040FFC008A11BE2F69
:02400E00F42F8D
:00000001FF
