:060000000A128A110E280D
:10000800FE00030EF2000A08F3007F08F4000A124B
:100018008A111C280A128A1111280A128A118420AE
:100028000A128A11F800F70183010A128A116E2850
:100038000B1C1F28202865280B10831203130608A1
:10004800780603192828292865280608F8000130A9
:10005800FF007F08F70705307706031D3428352889
:100068006528F501F6017608803AFF0080307F02A6
:10007800031D402808307502031C432844284528DE
:1000880061280130F000750A4B280310F00DFF3E7F
:10009800031D49287008831203138800A330F10058
:1000A8005530F000F00B5628F10B56280130F507B3
:1000B8000318F60A0030F60737288312031388015D
:1000C800F7017408FF0073088A00720E8300FE0EA1
:1000D8007E0E0900831603178901FF308316031368
:1000E800860081130B168B150B10FF3096008801C4
:1000F8008312031388018B1780280A128A110E288D
:02010800FF34C2
:02400E00F73F7A
:00000001FF
