:060000000A128A11FC2F18
:100E9E00831603131F129F129F170C138312031333
:100EAE001F140800F1007108F000F00DF00D831210
:100EBE0003131F087006C33970069F009F140800A5
:100ECE00F030831603138800013085000A128A1150
:100EDE004F270A128A1100300A128A1159270A1254
:100EEE008A11831203139F187D2F7E2F782F1E08D1
:100EFE00F500831603131E08F40000307502CC3083
:100F0E000319740203188C2F8D2F942F8312031341
:100F1E000810881008118811EF2F00307502CC30A0
:100F2E0003197402031C9C2F9D2FAD2F01307502E7
:100F3E009830031974020318A52FA62FAD2F831214
:100F4E0003130814881008118811EF2F0130750251
:100F5E00983003197402031CB52FB62FC62F02301A
:100F6E0075026430031974020318BE2FBF2FC62FEB
:100F7E00831203130814881408118811EF2F0230FE
:100F8E007502643003197402031CCE2FCF2FDF2F8E
:100F9E00033075023030031974020318D72FD82F7F
:100FAE00DF2F831203130814881408158811EF2FEE
:100FBE0003307502303003197402031CE72FE82F3B
:100FCE00EF2F831203130814881408158815EF2FBA
:100FDE008230F300DD30F200F20BF32FF30BF32F20
:100FEE00F82F722F0A128A11002883010A128A1111
:020FFE00672F5B
:02400E00F73F7A
:00000001FF
