:060000000A128A11FC2F18
:100F5200831603178801FF30831603138500880167
:100F620083128801E32F8230F100DD30F000F00BB4
:100F7200B82FF10BB82FBD2F831203130808F0000E
:100F8200700788000808031DC72FC82FE32F013000
:100F92008800E32F8230F100DD30F000F00BCF2F1C
:100FA200F10BCF2FD42F831203130808F000031084
:100FB200700C88000808031DDF2FE02FE32F80301C
:100FC2008800E32F0508F000F1017108003A0319C7
:100FD200EB2FE32F7008003A0319B12F013A0319DE
:100FE200B42F033A0319CB2F013A0319E32FE32F4E
:0E0FF2000A128A11002883010A128A11A92FFF
:02400E00F73F7A
:00000001FF
